:020000020000FC
:10000000C5C561C01895189509945DC03AC018958A
:1000100042C018951895E5C018951895189518952B
:10002000189572C01895697A40744042405B0290FE
:10003000FFFF7F0000B99FB68A9409F4E5E29FBEF6
:1000400018959FB68A949FBE189520FDC39A21FDEE
:10005000C29A22FDC19AE1E3832C24BC1895A8958D
:1000600018958F12EECFA89511FDEFCFE0916500A6
:10007000852C20FDC39821FDC29822FDC19844BC67
:1000800018959FB640916300415008F40E7F40934D
:1000900063009FBE18959FB64091640043954093BE
:1000A00064004F7019F4BB2019F0BA949FBE1895E4
:1000B00040916600439540936600409167004395E8
:1000C00040936700F3CF46B557B59EB496FE0DC07A
:1000D0009FB65A5659BD48BD41E84EBD48E048BF9D
:1000E0009FBE18959FB604600BC098B693FCFACFDC
:1000F0009FB63A0148B559B55659641A750A106148
:1001000041EC4EBD9FBE18959FB641B1403669F196
:100110004038B1F1403A69F1483A41F0483B79F052
:10012000483F11F04F1321C045ED20C067FC0DC0C2
:10013000F3B94AEF10FD4FEF4093810016C067FC02
:1001400007C04091810043B9F6CF40E94093830056
:100150005E2FE09183004191E093830043B9E83939
:10016000E52F09F002C045E801C045EC46BF9FBE3F
:100170001895409182004F131461F0938200F5CFDF
:1001800040918200439540938200413019F473B04E
:100190006F2EEBCF423011F463B0E7CF433021F440
:1001A00043B1423001F7E1CF4A3061F05E2FEDE814
:1001B000E40F43B14083E52F50919700540F5093C3
:1001C0009700D3CF43B15091910056FD006157FD88
:1001D0000062451B50E9450F5093910040939700F2
:1001E000C4CF9FB64CB1453F59F006FF0DC030F467
:1001F000509184005A9531F4742E18610F7B04C01D
:10020000006451E0509384009FBE189590E578EC0F
:10021000AB9AC29A939A1ED0E1F7AB98089594E6F0
:1002200074EB9798C19A949A15D0E1F7979A08952C
:1002300098E770EAC39A959A0DD0E1F708959CE883
:100240007CE8AB9A9798C19A939A04D0E1F7979A71
:10025000AB980895F2BF82B78032E8F368B3617F4C
:1002600068BB62B3677C62BB60E1F2BFA89582B7EE
:100270008717E8F36A95C9F79A95089500D000D0DA
:1002800000D09FE060E1F2BF81E088BFA89588B709
:1002900080FFFDCF6A95B9F79A95A1F708958091EF
:1002A00088009091890089569A4739F0C8E8D0E0D3
:1002B000E6E285918993C839E1F70895F894EF93C0
:1002C000F5DFEF91789408958091600081BF0F7DF4
:1002D000C8E8D0E080E890E0A895E199FDCF67B745
:1002E00060FDFACFC83981F09FBB8EBB0196E09AC2
:1002F0006DB317F06993F0CF79917DBBF894E29AD2
:100300006713E19A7894E8CFBCDF8FEF81BF08953F
:10031000000C111CAA1C8A95D9F70895869FA12C60
:10032000969FA00CC11DDF1F879FA00CC11DDF1F62
:10033000979FC00DD11D089513FD9DC012FD8DC066
:100340001F7EC3019053660B602763FDA5C007FDA8
:1003500051C0CAE8D0E001C091DF3FD0BC01A895F0
:10036000FF9FAA24CA3831F49FE160348BE57807F7
:1003700098F440C080918A00681780918B007807BC
:1003800060F792E2CC3841F080918C006817809140
:100390008D00780710F390E2892EA89514FFFDCF09
:1003A0001F7E1BD0080E191EAF1E861B970B805692
:1003B0009F4F8154914080F68A9479F783E0A8DFBB
:1003C0001992A99235DFCC38D9F25BDF31DFCE3814
:1003D00011F057DF2DDF78DF61C0C30103FF0895FF
:1003E000A3E0880F991FAA95E1F7089513FD43C074
:1003F00012FD33C01F76C301903360F003FD11C0BE
:10040000C0917F00D09180008C1B9D0B60F4CC27A5
:10041000DD2716C0963028F0803C62E1960703FD88
:1004200078F30460089560917B0070917C00C8E3CC
:10043000D0E074DFC73583E0D80710F0C7E5D3E01C
:10044000C0937900D0937A0001FF03C082E0B82EF8
:10045000BDC08CE0B816BF1E0895E3011F7E8091D9
:10046000960080FB17F9CC0FC295209649F3CE0178
:100470006DE373E0DCCFD72D1F76C0E0D03001F301
:10048000CE0160E074E0D3CFC3E076956795969592
:100490008795CA95D1F7089588E0082780918C0048
:1004A00090918D0060918A0070918B0003FDECDFCC
:1004B00080937F0090938000681B790B05D0809318
:1004C0007B0090937C00089585E595E00196A895C2
:1004D0009F3F890721F0C0EEDCEF20DFB9F70895D8
:1004E000F8948CB59DB56091640078B77894903895
:1004F00072FD6F1FC0916900D0916A00A0906B00DF
:100500008093690090936A0060936B0000906C0088
:1005100010906D0070916E00C0936C00D0936D00D0
:10052000A0926E0080199109670B94306F0728F430
:1005300080E094E060E0D694C79490386F07A7E518
:10054000B3E01EC0A1E0B1E27D01A0E8BBEAFF9FDD
:10055000771B0AC0771F001C111C781709061606A6
:1005600018F0781B090A160AAA1FBB1FEE1CFA9482
:1005700089F7A095B095A63DBF0710F4A6EDB0E0B1
:100580007D0180936F009093700060937100669579
:1005900097958795C0916900D0916A00A0906B00F3
:1005A00070E03CD0C0937200D0937300A0927400AE
:1005B00090316F0718F02F7B54D002C020648CD08C
:1005C00014FD14CFC0917900D0917A00CE15DF05CB
:1005D00008F0E701CC15DD0508F0E60187E593E0BA
:1005E0008C1B9D0BB1F02096B1F01D7F116016FFA2
:1005F00004C0880F991FCC0FDD1F75E29F137BE1AC
:10060000C09580951E01F8942C0170936500789434
:1006100008951360F2CF1C7F71E3F2CF879FC10D65
:10062000DF1FAF1E979FC00DD11DAF1E679FD00D5E
:10063000A11C089580916F009091700060917100ED
:10064000C0917200D0917300A09074000895F2DF01
:10065000C80FD91FA61EC80FD91FA61E02C0EADFE9
:10066000DDDF79B7072E7B7E79BF70E1F894DBBDC3
:10067000CABD78BF8CB59DB5789401606091640067
:1006800078B7903872FD6F1FC81BD90BA60AA092CD
:1006900063000AF40E7F09BE089526FFD8CF80912B
:1006A0006F0090917000C0917200D0917300C80FDC
:1006B000D91FC80FD91F10C026FFD1CF80916F005E
:1006C00090917000C0917200D0917300879FC10D0E
:1006D000DF1F979FC00DD11D70E1F894DBBDCABD2F
:1006E00078BF8CB59DB50160F09363007894C81B0A
:1006F000D90B0AF40E7F0895279670E1F8948CB513
:100700009DB5C80FD91FDBBDCABD78BFA0926300DD
:1007100001607894089514FD69DE00FDFCCF089512
:10072000F5BD80E488BFEFE288B3817F88BB82B3E8
:10073000877C82BB0895B09BF09366008091660031
:1007400085FF0895E0E0F894FCE185919491F0E054
:10075000789401960297A8F3F894F7BBF4BBF1BB29
:1007600088E181BDF1BD8091600081BF49CA82E509
:10077000B69B8F5FB79B8E5F82B985EC86BF08956D
:1007800000240FBEEFE5F4E0FEBFEDBF0292E036BD
:10079000F00509F4EEE1E015F005C1F781B78093AB
:1007A0006000A4B6F4BF80EC88BB8EE087BB80E31A
:1007B00085BB88E084BB82E082BB8AEB81BB82E0A0
:1007C00083BF81EC8EBDF5BD88E181BD88E081BD30
:1007D00058DD7ADD64DDCBDF7894A0FAAF1226F421
:1007E00015DD1DDD25DD1EC0A2FE04C021DD0EDDF0
:1007F000006818C0A1FE02C022DD14C0F894A3FE58
:1008000005C004DD03DD14DD13DDFBCF37DD4A2D2C
:1008100058E040FF04DD40FD12DD31DD46955A957C
:10082000C1F7F4CF979AAB980D7F38DE84E588BF87
:1008300089BFF0BD89E189B9549A86E880BD8CB141
:100840005F9A579A94DF81EC8EBD89B7806289BF29
:10085000BB24137EF0936600F0936700A89514FD07
:100860000AC069DF809167008837C1F78CE3809305
:100870006700DEDCF3CF60DDC0917900D0917A00B3
:10088000209631F78AE0B81648F312FFF6BF13FF3F
:100890005498812F8C7019F089B78F7D89BFCFDC78
:1008A000CEDCCDDC0B7F3CDF0D7F9798AB98F093CF
:1008B0006600F0936700A89514FD0CC0BB20D9F723
:1008C0003ADF809167008E31B1F72ADFDADCB0DCE5
:1008D000A6DCA8CF04FDF2DC05FDF6DC87DDBB203D
:1008E00051F3209621F31CDF80B7886080BF3798D2
:1008F000AB98979ACEE8D0E06E010260D9D0F09321
:100900007500F0937600F093770082E0B82E86E0D1
:10091000809362008CE08093610081E085BD17FDCB
:1009200037C0CAD081E087B9949810FD939AC2D09D
:1009300082E087B9F894287F226088B3C19898B381
:100940008913C29A7894B8D080E087B9939810FD43
:10095000959AB0D081E087B9F894287F216088B358
:10096000C29898B38913C39A7894A6D082E087B9C5
:10097000959810FD949A9ED080E087B9F894287FCE
:10098000246088B3C39898B38913C19A789436C009
:1009900091D082E087B9F894287F216088B3C1980C
:1009A00098B38913C39A789487D081E087B99498D3
:1009B00010FD959A7FD080E087B9F894287F226057
:1009C00088B3C39898B38913C29A789475D082E09B
:1009D00087B9959810FD939A6DD081E087B9F89406
:1009E000287F246088B3C29898B38913C19A7894F9
:1009F00063D080E087B9939810FD949A809161004C
:100A0000803010FF71F1E601209661F18C30C8F45E
:100A1000839580936100629686ED90E06091770007
:100A2000709176007C5F7093760021F4605FD9F05E
:100A300060937700603170F0703360F083E290E093
:100A400009C01F7BF0937700F0937600AB986B960C
:100A500087E593E0C817D90710F06C0160CF6E01ED
:100A60005ECF21CF40CF5CDE0D7F08DC07DCE7DB0B
:100A7000BDDC2096D1F7D6CEEFE288B3817F88BB6C
:100A8000AB9A81E0809362005EC016FD09C0BC3065
:100A900030F0BBE0AB1708F4AB2FFFDD47C0AB9ADB
:100AA000F093610070917500715F16FD7093750091
:100AB000106449C01F7D01C01062809162008150A6
:100AC00050F08093620016FF19C0C0E0DFEFAF2E38
:100AD00013DEA3E02AC0EF3211F4E1E3AB9816FD78
:100AE0003EC07BE1E9DD17DE79E5E6DD00FFC4CF3E
:100AF00014FD7CDC68B1612765FFF8CFA091700020
:100B0000B0917100B695A795B695A795A330BF078C
:100B100050F051F0AA31BF0708F0AAE1AC3020F044
:100B200073E3CADD02C0A3E0B8DDBA2F00FFADCF8A
:100B300014FD5CDC68B1612765FF03C0AB17AF1F14
:100B4000F5CFAA9599F7CCDC16FFE5DD8091620020
:100B50008F131E7FBF1208958F918F91A4CEC0E88E
:100B6000DEE370E0A72E80916100823030F4709156
:100B7000750080E090E860E051DDBEDDCCDDC0E0D6
:0E0B8000D8EB7BE0A72EB8DDAFEFCFCFF9CDDD
:101C0000E4E0FFE5FEBFEDBF00E0ECEBFEE0C0E886
:101C1000D0E0A0E6B0E042E045BD5CEE539571F047
:101C200040EC04BD48BFA03619F0E8B6E6FC46C05B
:101C3000B099F9CF04BD48BFE8B6E6FCE1C1B09B5E
:101C4000FBCF04BD48BFE8B6E6FCE8CFB099FBCFB8
:101C500034B404BD48BFE8B6E6FCD2C1B09BFBCFAC
:101C600024B4022C030C802C07940694402C069478
:101C70008008809420943094409460EE83E084BC8B
:101C800048BFE8B6E6FCBCC1B09BFBCF84BC48BFF4
:101C9000E8B6E6FCC3CFB099FBCF0894E8B6E6FC03
:101CA00023C0B09BFBCFE8B6E6FCB8CFB099FBCF22
:101CB0008894E8B6B09BE6FC17C0FBCF43BC87E135
:101CC000C09AB89A34BC48BFE8B6E6FEFDCFC098CB
:101CD00024BC48BFE8B6E6FEFDCF8A9589F7C0E68A
:101CE000D0E060E081E00BC0679548F6815068F570
:101CF0005CEE0994CA17DB07D1F0699188E066951C
:101D0000C09A34BC48BFE8B610F0E7FC08BBE6FE5A
:101D1000FACFC09808F0C09A24BC48BFE8B610F0CB
:101D2000E7FC08BBE6FEFACF8A9549F7E3CFC09AF5
:101D300034BC48BFC0E8D0E0A0E6B0E0E8B6E7FEBB
:101D4000FDCFB89808BB6ACF80E060E898CFECEB95
:101D5000FEE0C0E8D0E0F8CF009000000090000066
:101D60000090000000900000009000000090000033
:101D70000090000000900000000000006B3121F78F
:101D8000562E3796E1CF962E56263496DDCF762EF8
:101D900056263496D9CF662E56263496D5CF6E3039
:101DA000B1F656263596D0CF69935626CF3584E0C6
:101DB000D80768F681E0681A700A09F43C96C4CF27
:101DC0006511C5CFC0E8D0E0699199918991FD0175
:101DD0007BE170839182028372E073837EE074837F
:101DE0006583068317966130A1F48BE0838388E0D6
:101DF0008D93EF01ECEDFFE185918D93E43EE1F7EA
:101E0000FE01819161918627EA17FB07D9F78D932F
:101E10009ECF6D3151F5792F90E0039683839283A5
:101E200003970D938A95E9F789916991603380074B
:101E300094E0790779F460878991803059F4699149
:101E400060308EE131F0613083E919F0623087E073
:101E500009F482870D93D5CF8017900709F5D990A3
:101E6000C9905601AA0CBB1CCCCF6330E1F06230A4
:101E700041F2603131F2613121F2663069F3623151
:101E8000F1F1833F73E0970758F4643109F166314B
:101E900069F127966531C1F16331F9F10000000065
:101EA00080EC8683AECF90398FE071F0913982E07B
:101EB00059F092398AE041F0943982E329F0903860
:101EC00080E011F0913861F78D9383E0838399CF9F
:101ED00049D0EF01F5018FD076FDFDCF65916D936F
:101EE0000197E1F75F01FE010D938BCF3BD011E02D
:101EF0003ED06DB36D930197D9F70D9382CF47D044
:101F0000000080E092E0689416E06FEF0EF06991B7
:101F10002ED00197D1F7E89474CF8F7F61E07F01D5
:101F2000F5010990199068D032960297D1F70F0108
:101F3000F501500163E0E03C7FE1F70719F058D06C
:101F4000F7015FCF0BD065E009D061E107D0F8CF92
:101F500077B770FDFDCFE199FECF0895F9DF67BF38
:101F6000E8950895039692838383039708953AD062
:101F7000DFBACEBA0894C01ED01E762FE09A6DB399
:101F8000671312FF08957DBBE29A1CBB08957F0181
:101F9000E0E0FCE163E0E054F0402ED0E1F76F01B7
:101FA000F70108950000000000000000000000009C
:101FB0000000000000000000000000000000000021
:101FC000687474703A2F2F6769746875622E636F36
:101FD0006D2F73696D2D2F7467792F00415652490B
:101FE00053505F3277B770FDFDCFE199FECF089572
:101FF00003D065E001D061E1F5DF67BFE8950895A2
:00000001FF
