:020000020000FC
:10000000C8C56BC018951895099467C044C0189569
:100010004CC01895189582C0189518951895189584
:1000200018957CC01895697A40744042405B9FB631
:100030008A9409F4E1E29FBE18959FB68A949FBE08
:10004000189520FD959A21FDAD9A22FD939A20FDE9
:10005000AC9A21FD929A22FD949AE3E3832C24BC6E
:100060001895A89518958F12E8CFA89511FDE9CF9E
:10007000E0916500852C20FDAC9821FD929822FD31
:10008000949844BC27FD189520FD959821FDAD98C6
:1000900022FD939818959FB640916300415008F453
:1000A0000E7F409363009FBE18959FB640916400F9
:1000B0004395409364004F7019F4BB2019F0BA9433
:1000C0009FBE18954091660043954093660040910D
:1000D0006700439540936700F3CF46B557B59EB48C
:1000E00096FE0DC09FB65A5659BD48BD41E84EBD5B
:1000F00048E048BF9FBE18959FB604600BC098B6F5
:1001000093FCFACF9FB63A0148B559B55659641ACF
:10011000750A106141EC4EBD9FBE18959FB64CB15B
:10012000453F59F006FF0DC030F4509181005A95BB
:1001300031F4742E18610F7B04C0006451E05093B9
:1001400081009FBE189590E578ECAD98AC9A17D0D9
:10015000E1F7089594E674EB9398929A10D0E1F742
:10016000089598E770EA9598949A09D0E1F7089570
:100170009CE87CE89398AC9A02D0E1F70895F2BF2E
:1001800082B78032E8F3959AAD9A939AAC98929898
:10019000949860E1F2BFA89582B78717E8F36A9553
:1001A000C9F79A95089500D000D000D09FE060E193
:1001B000F2BF81E088BFA89588B780FFFDCF6A9520
:1001C000B9F79A95A1F708958091850090918600DE
:1001D00089569A4739F0C5E8D0E0E6E285918993DF
:1001E000CD38E1F708958091600081BF0F7DC5E8AB
:1001F000D0E080E890E0A895E199FDCF67B760FD79
:10020000FACFCD3881F09FBB8EBB0196E09A6DB3DB
:1002100017F06993F0CF79917DBBF894E29A671358
:10022000E19A7894E8CFC2DF8FEF81BF0895000C88
:10023000111CAA1C8A95D9F70895869FA12C969F18
:10024000A00CC11DDF1F879FA00CC11DDF1F979F42
:10025000C00DD11D0895E894A1E076E047D0A2E05A
:1002600077E044D0A3E070E041D0A5E0C8E8D3E156
:1002700021978699E9F74CD076F38E9A969A96DF75
:10028000A6E076E04FD0EC01AC9A4CD0AC983CD0D4
:100290008DDFA7E077E046D0EC01929A43D09298A8
:1002A00033D084DFA8E070E03DD0EC01949A3AD0DE
:1002B00094982AD096987ADFA9E076E033D0EC01C2
:1002C000959830D0959A1CD0AAE077E02BD0EC011D
:1002D000AD9828D0AD9A14D0ABE070E023D0EC01FB
:1002E000939820D0939A0CD08E980895C8E8D3E1C3
:1002F00019D08F56904018F02197D1F70AC0089571
:10030000C817D90730F408958C179D0710F4089585
:1003100041F4CA2F18DF47DFCA95E1F744DF43DF16
:1003200068940895F0BF706477B987EC86B9A89592
:100330003699FECF84B195B1F6B9089513FD8BC0FF
:100340001F7EC3019053660B602763FD95C007FDB8
:100350004FC0C7E8D0E001C026DF3FD0BC01A89560
:10036000FF9FAA24C73831F49FE160348BE57807FA
:1003700098F43EC0809187006817809188007807C4
:1003800060F792E2C93841F0809189006817809146
:100390008A00780710F390E2892EA89514FFFDCF0C
:1003A0001F7E1BD0080E191EAF1E861B970B805692
:1003B0009F4F8154914080F68A9479F783E037DF2C
:1003C0001992A992CEDEC938D9F2F0DECADECB3856
:1003D00011F0ECDEC6DE07DF51C0C30103FF089554
:1003E000A3E0880F991FAA95E1F7089513FD33C084
:1003F0001F76C301903360F003FD11C0C0917F00F0
:10040000D09180008C1B9D0B60F4CC27DD2716C09B
:10041000963028F0803C62E1960703FD78F3046093
:10042000089560917B0070917C00C8E3D0E005DF07
:10043000C73583E0D80710F0C7E5D3E0C093790053
:10044000D0937A0001FF03C082E0B82EAFC08CE0E9
:10045000B816BF1E0895D72D1F76C0E0D03071F3B7
:10046000CE0160E074E0E1CFC3E0769567959695A4
:100470008795CA95D1F7089588E00827809189006B
:1004800090918A00609187007091880003FDECDFF5
:1004900080937F0090938000681B790B05D0809338
:1004A0007B0090937C00089585E595E00196A895E2
:1004B0009F3F890721F0C0EEDCEFBFDEB9F708955A
:1004C000F8948CB59DB56091640078B778949038B5
:1004D00072FD6F1FC0916900D0916A00A0906B00FF
:1004E0008093690090936A0060936B0000906C00A9
:1004F00010906D0070916E00C0936C00D0936D00F1
:10050000A0926E0080199109670B94306F0728F450
:1005100080E094E060E0D694C79490386F07A7E538
:10052000B3E01EC0A1E0B1E27D01A0E8BBEAFF9FFD
:10053000771B0AC0771F001C111C781709061606C6
:1005400018F0781B090A160AAA1FBB1FEE1CFA94A2
:1005500089F7A095B095A63DBF0710F4A6EDB0E0D1
:100560007D0180936F009093700060937100669599
:1005700097958795C0916900D0916A00A0906B0013
:1005800073E347D0C0937200D0937300A0927400BD
:1005900090316F0718F02F7B5FD002C0206497D096
:1005A00014FD24CFC0917900D0917A00CE15DF05DB
:1005B00008F0E701CC15DD0508F0E60187E593E0DA
:1005C0008C1B9D0B01F1209601F11D7F116016FF20
:1005D00004C0880F991FCC0FDD1F689477E29F132A
:1005E00077E180319F0728F0E894079771E29F1325
:1005F00077E1C09580951E01F8942C0170936500F9
:1006000027F9789408951360E8CF1C7F73E368940A
:10061000F0CF879FC10DDF1FAF1E979FC00DD11D6B
:10062000AF1E679FD00DA11C089580916F0090911F
:10063000700060917100C0917200D0917300A09021
:1006400074000895F2DFC80FD91FA61EC80FD91F66
:10065000A61E02C0EADFDDDF79B7072E7B7E79BFF9
:1006600070E1F894DBBDCABD78BF8CB59DB57894B8
:1006700001606091640078B7903872FD6F1FC81BED
:10068000D90BA60AA09263000AF40E7F09BE089552
:1006900026FFD8CF80916F0090917000C0917200BA
:1006A000D0917300C80FD91FC80FD91F10C026FFE3
:1006B000D1CF80916F0090917000C0917200D09165
:1006C0007300879FC10DDF1F979FC00DD11D70E183
:1006D000F894DBBDCABD78BF8CB59DB50160F093C1
:1006E00063007894C81BD90B0AF40E7F08952796EF
:1006F00070E1F8948CB59DB5C80FD91FDBBDCABD9C
:1007000078BFA092630001607894089514FD6EDEB6
:1007100000FDFCCF0895F5BD80E488BFE1E3959A24
:10072000AD9A939AAC98929894980895B09BF09350
:1007300066008091660085FF0895E0E0F894FCE192
:1007400085919491F0E0789401960297A8F3F8943B
:10075000F7BBF4BBF1BB88E181BDF1BD80916000C6
:1007600081BF4ECA00240FBEEFE5F4E0FEBFEDBF2F
:100770000292E036F00509F4EEE1E015F005C1F76C
:1007800081B780936000A4B6F4BFF8BBF7BB80E2EA
:1007900085BB80E384BB8AE282BB8EE381BB82E0BF
:1007A00083BF81EC8EBDF5BD88E181BD88E081BD50
:1007B000FDDC19DD09DD78944EDDA0FAAF1226F4D8
:1007C000C2DCC8DCCEDC1EC0A2FE04C0CADCBBDCBE
:1007D000006818C0A1FE02C0CBDC14C0F894A3FED0
:1007E00005C0B1DCB0DCBDDCBCDCFBCFDCDC4A2D01
:1007F00058E040FFAFDC40FDBBDCD6DC46955A95A7
:10080000C1F7F4CF0D7F3ADE84E588BF89BFF0BD24
:1008100089E189B9549A86E880BD8CB15F9A579A6C
:1008200081EC8EBD89B7806289BFBB24137EF093B3
:100830006600F0936700A89514FD0AC077DF8091E9
:1008400067008837C1F78CE3809367008ADCF3CFB9
:1008500075DDC0917900D0917A00209631F78AE059
:10086000B81648F313FF5498812F8C7019F089B78C
:100870008F7D89BF7DDC7CDC7BDC0B7F4CDF0D7FDB
:10088000F0936600F0936700A89514FD0CC0BB20A0
:10089000D9F74CDF809167008E31B1F73CDF86DC01
:1008A00060DC58DCAFCFA2DDBB2071F3209641F3B2
:1008B00032DF80B7886080BF3798CEE8D0E06E0125
:1008C0000260FAD0F0937500F0937600F093770011
:1008D00082E0B82E86E0809362008CE08093610015
:1008E00081E085BD17FD46C0EBD087E087B9AD9AA2
:1008F00010FD9598E3D080E087B9F894287F2260B6
:1009000062B3939A72B382B3949892B38913929A12
:100910006713AD987894D4D086E087B9959A10FD86
:100920009398CCD087E087B9F894287F216065B38D
:10093000AD9A75B382B3929892B38913AC9A671348
:1009400095987894BDD080E087B9939A10FDAD98C2
:10095000B5D086E087B9F894287F246062B3959A71
:1009600072B385B3AC9895B38913949A671393982F
:10097000789445C0A3D080E087B9F894287F21609F
:1009800062B3939A72B382B3949892B38913AC9A78
:1009900067139598789494D087E087B9AD9A10FD45
:1009A00093988CD086E087B9F894287F226062B350
:1009B000959A72B385B3AC9895B38913929A6713DD
:1009C000AD9878947DD080E087B9939A10FD959882
:1009D00075D087E087B9F894287F246065B3AD9A15
:1009E00075B382B3929892B38913949A67139398CC
:1009F000789466D086E087B9959A10FDAD9880917D
:100A00006100803010FF69F1E601209659F18C30C9
:100A1000C8F4839580936100629686ED90E06091C2
:100A20007700709176007C5F7093760021F4605FB0
:100A3000D1F060937700603168F0703358F083E252
:100A400090E008C01F7BF0937700F09376006B96E0
:100A500087E593E0C817D90710F06C0143CF6E010A
:100A600041CF0CCF25CF57DE0D7F9DDB9CDB80DB9C
:100A7000BDDC2096D1F7C6CEE1E320FD959A21FD9D
:100A8000AD9A22FD939AAC989298949881E08093C5
:100A900062005CC016FD08C0BC3030F0BBE0AB1794
:100AA00008F4AB2FF5DD45C0F0936100709175003F
:100AB000715F16FD70937500106448C01F7D01C002
:100AC000106280916200815050F08093620016FFA6
:100AD00018C0C0E0DFEFAF2E0ADEA3E029C0E1338B
:100AE00009F4E3E316FD3EC07BE1E1DD0FDE79E5CD
:100AF000DEDD00FFC1CF14FD79DC68B1612765FD43
:100B0000F8CFA0917000B0917100B695A795B695F9
:100B1000A795A330BF0750F051F0AA31BF0708F0E6
:100B2000AAE1AC3020F073E3C2DD02C0A3E0B0DD87
:100B3000BA2F00FFAFCF14FD59DC68B1612765FD06
:100B400003C0AB17AF1FF5CFAA9599F7B9DC16FF15
:100B5000DDDD809162008F131E7FBF1208958F919B
:100B60008F918CCEC0E0D0E070E0A72E8091610024
:100B7000823030F47091750080E090E860E049DDEB
:100B8000B6DDC4DDC0E0D8EB7BE0A72EB0DDAFEF73
:040B9000CFCFE8CD0E
:101C0000E4E0FFE5FEBFEDBF00E0ECEBFEE0C0E886
:101C1000D0E0A0E6B0E042E045BD5CEE539571F047
:101C200040EC04BD48BFA03619F0E8B6E6FC46C05B
:101C3000B099F9CF04BD48BFE8B6E6FCE1C1B09B5E
:101C4000FBCF04BD48BFE8B6E6FCE8CFB099FBCFB8
:101C500034B404BD48BFE8B6E6FCD2C1B09BFBCFAC
:101C600024B4022C030C802C07940694402C069478
:101C70008008809420943094409460EE83E084BC8B
:101C800048BFE8B6E6FCBCC1B09BFBCF84BC48BFF4
:101C9000E8B6E6FCC3CFB099FBCF0894E8B6E6FC03
:101CA00023C0B09BFBCFE8B6E6FCB8CFB099FBCF22
:101CB0008894E8B6B09BE6FC17C0FBCF43BC87E135
:101CC000C09AB89A34BC48BFE8B6E6FEFDCFC098CB
:101CD00024BC48BFE8B6E6FEFDCF8A9589F7C0E68A
:101CE000D0E060E081E00BC0679548F6815068F570
:101CF0005CEE0994CA17DB07D1F0699188E066951C
:101D0000C09A34BC48BFE8B610F0E7FC08BBE6FE5A
:101D1000FACFC09808F0C09A24BC48BFE8B610F0CB
:101D2000E7FC08BBE6FEFACF8A9549F7E3CFC09AF5
:101D300034BC48BFC0E8D0E0A0E6B0E0E8B6E7FEBB
:101D4000FDCFB89808BB6ACF80E060E898CFECEB95
:101D5000FEE0C0E8D0E0F8CF009000000090000066
:101D60000090000000900000009000000090000033
:101D70000090000000900000000000006B3121F78F
:101D8000562E3796E1CF962E56263496DDCF762EF8
:101D900056263496D9CF662E56263496D5CF6E3039
:101DA000B1F656263596D0CF69935626CF3584E0C6
:101DB000D80768F681E0681A700A09F43C96C4CF27
:101DC0006511C5CFC0E8D0E0699199918991FD0175
:101DD0007BE170839182028372E073837EE074837F
:101DE0006583068317966130A1F48BE0838388E0D6
:101DF0008D93EF01ECEDFFE185918D93E43EE1F7EA
:101E0000FE01819161918627EA17FB07D9F78D932F
:101E10009ECF6D3151F5792F90E0039683839283A5
:101E200003970D938A95E9F789916991603380074B
:101E300094E0790779F460878991803059F4699149
:101E400060308EE131F0613083E919F0623087E073
:101E500009F482870D93D5CF8017900709F5D990A3
:101E6000C9905601AA0CBB1CCCCF6330E1F06230A4
:101E700041F2603131F2613121F2663069F3623151
:101E8000F1F1833F73E0970758F4643109F166314B
:101E900069F127966531C1F16331F9F10000000065
:101EA00080EC8683AECF90398FE071F0913982E07B
:101EB00059F092398AE041F0943982E329F0903860
:101EC00080E011F0913861F78D9383E0838399CF9F
:101ED00049D0EF01F5018FD076FDFDCF65916D936F
:101EE0000197E1F75F01FE010D938BCF3BD011E02D
:101EF0003ED06DB36D930197D9F70D9382CF47D044
:101F0000000080E092E0689416E06FEF0EF06991B7
:101F10002ED00197D1F7E89474CF8F7F61E07F01D5
:101F2000F5010990199068D032960297D1F70F0108
:101F3000F501500163E0E03C7FE1F70719F058D06C
:101F4000F7015FCF0BD065E009D061E107D0F8CF92
:101F500077B770FDFDCFE199FECF0895F9DF67BF38
:101F6000E8950895039692838383039708953AD062
:101F7000DFBACEBA0894C01ED01E762FE09A6DB399
:101F8000671312FF08957DBBE29A1CBB08957F0181
:101F9000E0E0FCE163E0E054F0402ED0E1F76F01B7
:101FA000F70108950000000000000000000000009C
:101FB0000000000000000000000000000000000021
:101FC000687474703A2F2F6769746875622E636F36
:101FD0006D2F73696D2D2F7467792F00415652490B
:101FE00053505F3277B770FDFDCFE199FECF089572
:101FF00003D065E001D061E1F5DF67BFE8950895A2
:00000001FF
