:020000020000FC
:10000000DFC461C01895189509945DC03AC0189571
:1000100042C018951895C4C018951895189518954C
:10002000189551C01895697A40744042405B02901F
:10003000FFFF7F0000B99FB68A9409F4E5E29FBEF6
:1000400018959FB68A949FBE189520FD909A21FD21
:10005000919A22FD939AE1E3832C24BC1895A895EC
:1000600018958F12EECFA89511FDEFCFE0916500A6
:10007000852C20FD909821FD919822FD939844BCF9
:1000800018959FB640916300415008F40E7F40934D
:1000900063009FBE18959FB64091640043954093BE
:1000A00064004F7019F4BB2019F0BA949FBE1895E4
:1000B00040916600439540936600409167004395E8
:1000C00040936700F3CF9FB641B1403669F14038A5
:1000D000B1F1403A69F1483A41F0483B79F0483F84
:1000E00011F04F1321C045ED20C067FC0DC0F3B9DE
:1000F0004AEF10FD4FEF4093810016C067FC07C028
:100100004091810043B9F6CF40E9409383005E2FD0
:10011000E09183004191E093830043B9E839E52FF2
:1001200009F002C045E801C045EC46BF9FBE1895E6
:10013000409182004F131461F0938200F5CF4091FB
:100140008200439540938200413019F473B06F2EC2
:10015000EBCF423011F463B0E7CF433021F443B129
:10016000423001F7E1CF4A3061F05E2FEDE8E40F55
:1001700043B14083E52F50919700540F509397005F
:10018000D3CF43B15091910056FD006157FD0062FD
:10019000451B50E9450F5093910040939700C4CF01
:1001A00090E578EC979A909A17D0E1F7089594E645
:1001B00074EB949A919A10D0E1F7089598E770EA59
:1001C000959A939A09D0E1F708959CE87CE8949A6F
:1001D000909A02D0E1F70895F2BF82B78032E8F337
:1001E00062B36F7462BB62B3647F62BB60E1F2BFF3
:1001F000A89582B78717E8F36A95C9F79A95089585
:1002000000D000D000D09FE060E1F2BF81E088BF65
:10021000A89588B780FFFDCF6A95B9F79A95A1F7A1
:100220000895809188009091890089569A4739F005
:10023000C8E8D0E0E6E285918993C839E1F70895EE
:10024000F894EF93F5DFEF91789408958091600032
:1002500081BF0F7DC8E8D0E080E890E0A895E199E3
:10026000FDCF67B760FDFACFC83981F09FBB8EBB69
:100270000196E09A6DB317F06993F0CF79917DBB49
:10028000F894E29A6713E19A7894E8CFBCDF8FEF95
:1002900081BF0895000C111CAA1C8A95D9F70895F6
:1002A000869FA12C969FA00CC11DDF1F879FA00CCD
:1002B000C11DDF1F979FC00DD11D089512FD18C0ED
:1002C00012FD16C0C8E3D0E0EBDFC73583E0D807E6
:1002D00010F0C7E5D3E0C0937900D0937A0001FF16
:1002E00003C082E0B82EB4C08CE0B816BF1E0895DB
:1002F000E3011F7E8091960080FB17F9CC0FC29519
:10030000209649F3CE016DE373E0DCCFC3E0769530
:10031000679596958795CA95D1F7089588E008273F
:1003200080918C0090918D0060918A0070918B007B
:1003300003FDECDF80937F0090938000681B790BB6
:1003400005D080937B0090937C00089585E595E02F
:100350000196A8959F3F890721F0C0EEDCEFA0DF52
:10036000B9F70895F8948CB59DB56091640078B79D
:100370007894903872FD6F1FC0916900D0916A0027
:10038000A0906B008093690090936A0060936B006B
:1003900000906C0010906D0070916E00C0936C0026
:1003A000D0936D00A0926E0080199109670B943074
:1003B0006F0728F480E094E060E0D694C79490380A
:1003C0006F07A7E5B3E01EC0A1E0B1E27D01A0E8A0
:1003D000BBEAFF9F771B0AC0771F001C111C781710
:1003E0000906160618F0781B090A160AAA1FBB1F71
:1003F000EE1CFA9489F7A095B095A63DBF0710F4BE
:10040000A6EDB0E07D0180936F0090937000609343
:100410007100669597958795C0916900D0916A00A3
:10042000A0906B0073E33CD0C0937200D093730034
:10043000A092740090316F0718F02F7B54D002C047
:1004400020648CD014FD3CCFC0917900D0917A000B
:10045000CE15DF0508F0E701CC15DD0508F0E60153
:1004600087E593E08C1B9D0BB1F02096B1F01D7FCA
:10047000116016FF04C0880F991FCC0FDD1F75E2B5
:100480009F137BE1C09580951E01F8942C01709319
:100490006500789408951360F2CF1C7F71E3F2CF6A
:1004A000879FC10DDF1FAF1E979FC00DD11DAF1ECF
:1004B000679FD00DA11C089580916F0090917000EE
:1004C00060917100C0917200D0917300A09074008F
:1004D0000895F2DFC80FD91FA61EC80FD91FA61E88
:1004E00002C0EADFDDDF79B7072E7B7E79BF70E1DE
:1004F000F894DBBDCABD78BF8CB59DB5789401601A
:100500006091640078B7903872FD6F1FC81BD90BDB
:10051000A60AA09263000AF40E7F09BE089526FF82
:10052000D8CF80916F0090917000C0917200D091EF
:100530007300C80FD91FC80FD91F10C026FFD1CF15
:1005400080916F0090917000C0917200D091730003
:10055000879FC10DDF1F979FC00DD11D70E1F894DB
:10056000DBBDCABD78BF8CB59DB50160F09363005B
:100570007894C81BD90B0AF40E7F0895279670E172
:10058000F8948CB59DB5C80FD91FDBBDCABD78BF27
:10059000A092630001607894089514FD91DE00FD3F
:1005A000FCCF0895F5BD80E488BFEFE282B38F747D
:1005B00082BB82B3847F82BB08958299F0936600E8
:1005C0008091660085FF0895E0E0F894FCE1859154
:1005D0009491F0E0789401960297A8F3F894F7BB11
:1005E000F4BBF1BB88E181BDF1BD8091600081BFAA
:1005F00007CB82E582B985EC86BF089500240FBE43
:10060000EFE5F4E0FEBFEDBF0292E036F00509F43D
:10061000EEE1E015F005C1F781B780936000A4B664
:10062000F4BFF8BBF7BB80E385BBF4BBF2BB8BEB3D
:1006300081BB82E083BF81E08EBDF5BD88E181BDD5
:1006400088E081BDE0DD02DEECDDD3DF7894A0FA46
:10065000AF1226F4A5DDABDDB1DD1EC0A2FE04C0E5
:10066000ADDD9EDD006818C0A1FE02C0AEDD14C085
:10067000F894A3FE05C094DD93DDA0DD9FDDFBCFE4
:10068000BFDD4A2D58E040FF92DD40FD9EDDB9DD23
:1006900046955A95C1F7F4CF0D7F42DE84E588BFB9
:1006A00089BFA7DFBB24137EF0936600F093670039
:1006B000A89514FD0AC081DF809167008837C1F7D3
:1006C0008CE3809367007ADDF3CFF8DDC091790089
:1006D000D0917A00209631F78AE0B81648F312FFDD
:1006E000F6BF73DD72DD71DD0B7F5CDF0D7FF09394
:1006F0006600F0936700A89514FD0CC0BB20D9F7E5
:100700005CDF809167008E31B1F74CDF7CDD56DD18
:100710004EDDC2CF04FD94DD05FD98DDD1DDBB20AB
:1007200051F3209621F33EDF80B7886080BF379871
:10073000CEE8D0E06E010260D6D0F0937500F09361
:100740007600F093770082E0B82E86E08093620016
:100750008CE08093610081E085BD17FD37C0C7D074
:1007600083E087B9979810FD959ABFD081E087B94B
:10077000F894287F226082B3939892B38913919A58
:100780007894B5D082E087B9959810FD949AADD051
:1007900083E087B9F894287F216082B3919892B35F
:1007A0008913909A7894A3D081E087B9949810FD2A
:1007B000979A9BD082E087B9F894287F246082B30F
:1007C000909892B38913939A789436C08ED081E032
:1007D00087B9F894287F216082B3939892B38913E4
:1007E000909A789484D083E087B9979810FD949A72
:1007F0007CD082E087B9F894287F226082B39098F9
:1008000092B38913919A789472D081E087B99498C1
:1008100010FD959A6AD083E087B9F894287F246008
:1008200082B3919892B38913939A789460D082E0BE
:1008300087B9959810FD979A80916100803010FFDC
:1008400069F1E601209659F18C30C8F483958093C4
:100850006100629686ED90E060917700709176007D
:100860007C5F7093760021F4605FD1F06093770035
:10087000603168F0703358F083E290E008C01F7B6D
:10088000F0937700F09376006B9687E593E0C817B6
:10089000D90710F06C0161CF6E015FCF26CF43CF37
:1008A00081DE0D7FADDCACDC90DC0ADD2096D1F77B
:1008B000F3CEEFE282B3847F82BB81E0809362005B
:1008C0005CC016FD08C0BC3030F0BBE0AB1708F4CC
:1008D000AB2F25DE45C0F093610070917500715F0C
:1008E00016FD70937500106448C01F7D01C0106232
:1008F00080916200815050F08093620016FF18C012
:10090000C0E0DFEFAF2E3ADEA3E029C0EF3209F4FA
:10091000E1E316FD3EC07BE111DE3FDE79E50EDE50
:1009200000FFC7CF14FDCCDC68B1612765FDF8CFAF
:10093000A0917000B0917100B695A795B695A79556
:10094000A330BF0750F051F0AA31BF0708F0AAE169
:10095000AC3020F073E3F2DD02C0A3E0E0DDBA2F9B
:1009600000FFAFCF14FDACDC68B1612765FD03C0AB
:10097000AB17AF1FF5CFAA9599F7F4DC16FF0DDE84
:10098000809162008F131E7FBF1208958F918F9107
:10099000ACCEC0E0D0E070E0A72E80916100823044
:1009A00030F47091750080E090E860E079DDE6DD7C
:1009B000F4DDC0E0D8EB7BE0A72EE0DDAFEFCFCFDA
:0209C0001DCE4A
:101C0000E4E0FFE5FEBFEDBF00E0ECEBFEE0C0E886
:101C1000D0E0A0E6B0E042E045BD5CEE539571F047
:101C200040EC04BD48BFA03619F0E8B6E6FC46C05B
:101C30008299F9CF04BD48BFE8B6E6FCE1C1829BBA
:101C4000FBCF04BD48BFE8B6E6FCE8CF8299FBCFE6
:101C500034B404BD48BFE8B6E6FCD2C1829BFBCFDA
:101C600024B4022C030C802C07940694402C069478
:101C70008008809420943094409460EE83E084BC8B
:101C800048BFE8B6E6FCBCC1829BFBCF84BC48BF22
:101C9000E8B6E6FCC3CF8299FBCF0894E8B6E6FC31
:101CA00023C0829BFBCFE8B6E6FCB8CF8299FBCF7E
:101CB0008894E8B6829BE6FC17C0FBCF43BC87E163
:101CC000929A8A9A34BC48BFE8B6E6FEFDCF929855
:101CD00024BC48BFE8B6E6FEFDCF8A9589F7C0E68A
:101CE000D0E060E081E00BC0679548F6815068F570
:101CF0005CEE0994CA17DB07D1F0699188E066951C
:101D0000929A34BC48BFE8B610F0E7FC02BBE6FE8E
:101D1000FACF929808F0929A24BC48BFE8B610F027
:101D2000E7FC02BBE6FEFACF8A9549F7E3CF929A29
:101D300034BC48BFC0E8D0E0A0E6B0E0E8B6E7FEBB
:101D4000FDCF8A9802BB6ACF80E060E898CFECEBC9
:101D5000FEE0C0E8D0E0F8CF009000000090000066
:101D60000090000000900000009000000090000033
:101D70000090000000900000000000006B3121F78F
:101D8000562E3796E1CF962E56263496DDCF762EF8
:101D900056263496D9CF662E56263496D5CF6E3039
:101DA000B1F656263596D0CF69935626CF3584E0C6
:101DB000D80768F681E0681A700A09F43C96C4CF27
:101DC0006511C5CFC0E8D0E0699199918991FD0175
:101DD0007BE170839182028372E073837EE074837F
:101DE0006583068317966130A1F48BE0838388E0D6
:101DF0008D93EF01ECEDFFE185918D93E43EE1F7EA
:101E0000FE01819161918627EA17FB07D9F78D932F
:101E10009ECF6D3151F5792F90E0039683839283A5
:101E200003970D938A95E9F789916991603380074B
:101E300094E0790779F460878991803059F4699149
:101E400060308EE131F0613083E919F0623087E073
:101E500009F482870D93D5CF8017900709F5D990A3
:101E6000C9905601AA0CBB1CCCCF6330E1F06230A4
:101E700041F2603131F2613121F2663069F3623151
:101E8000F1F1833F73E0970758F4643109F166314B
:101E900069F127966531C1F16331F9F10000000065
:101EA00080EC8683AECF90398FE071F0913982E07B
:101EB00059F092398AE041F0943982E329F0903860
:101EC00080E011F0913861F78D9383E0838399CF9F
:101ED00049D0EF01F5018FD076FDFDCF65916D936F
:101EE0000197E1F75F01FE010D938BCF3BD011E02D
:101EF0003ED06DB36D930197D9F70D9382CF47D044
:101F0000000080E092E0689416E06FEF0EF06991B7
:101F10002ED00197D1F7E89474CF8F7F61E07F01D5
:101F2000F5010990199068D032960297D1F70F0108
:101F3000F501500163E0E03C7FE1F70719F058D06C
:101F4000F7015FCF0BD065E009D061E107D0F8CF92
:101F500077B770FDFDCFE199FECF0895F9DF67BF38
:101F6000E8950895039692838383039708953AD062
:101F7000DFBACEBA0894C01ED01E762FE09A6DB399
:101F8000671312FF08957DBBE29A1CBB08957F0181
:101F9000E0E0FCE163E0E054F0402ED0E1F76F01B7
:101FA000F70108950000000000000000000000009C
:101FB0000000000000000000000000000000000021
:101FC000687474703A2F2F6769746875622E636F36
:101FD0006D2F73696D2D2F7467792F00415652490B
:101FE00053505F3277B770FDFDCFE199FECF089572
:101FF00003D065E001D061E1F5DF67BFE8950895A2
:00000001FF
